:100000000C9448000C9452000C9452000C94520032
:100010000C9452000C9452000C9452000C94520018
:100020000C9452000C9452000C9452000C94520008
:100030000C9452000C9452000C9452000C945200F8
:100040000C9452000C9452000C9452000C945200E8
:100050000C9452000C9452000C9452000C945200D8
:100060000C9452000C9452000C9452000C945200C8
:100070000C9452000C9452000C9452000C945200B8
:100080000C9452000C9452000C9452000C945200A8
:1000900011241FBECFEFCDBFDFE3DEBF0E9464009F
:1000A0000C9493030C940000C82F48E750E068E7D5
:1000B00070E08C2F0E94BF0040E951E060E971E0E0
:1000C00081E00E94BF00F1CFCF93DF93CDB7DEB7C1
:1000D000C25CD109CDBFDEBF0E9491000E94B90071
:1000E00060EA76E881E090E00E94F8008E010F5F00
:1000F0001F4F82ECF80111928A95E9F780E6898317
:10010000C8010E94DB02811103C082E00E945400FA
:10011000C8010E944303882311F081E0F7CF84E0F7
:10012000F5CFF8948091010180FDFCCF60E080E084
:1001300091E00E948D038091010180FDFCCF60E081
:1001400080E690E00E948D0360E081E690E00E94EE
:100150008D038091630084FFFCCF8091E3058C7C4C
:1001600080628093E3058091E2058C7F8093E205B5
:100170000895E0E6F4E081E081838683089590E0CD
:10018000E1E0981301C00895E09365049B012115F7
:10019000310541F4E09366049A012115310559F4C3
:1001A0009F5FEFCFA7E8B3E11197F1F700C0000020
:1001B00021503109ECCFA7E8B3E11197F1F700C066
:1001C000000021503109E9CF40E251EA67E070E0D8
:1001D0009091A508292F2C7039F4982339F44150B7
:1001E000510961097109A1F780E0089581E008953E
:1001F0009B01AC01220F331F441F551F60E07DE2BD
:1002000081E391E00E94620381E090E0A0E0B0E031
:10021000263031054105510578F0DA01C90105970D
:10022000A109B1098F3F9105A105B10529F020F081
:100230008FEF90E0A0E0B0E08093A60883E0809389
:10024000A30881E08093A5080895880F8093A708EC
:1002500080E40E94E40093E09093A408811101C01F
:1002600008950895DF92EF92FF920F931F93CF931B
:10027000DF93D62E072F7A01880F8093A70880E49A
:100280000E94E400182F811104C083E08093A40829
:1002900017C08091A50884FD0FC0CD2DD02FEC0E86
:1002A000FD1ECE15DF0589F389918093A80880E4AF
:1002B0000E94E40081110DC083E08093A40810E047
:1002C000812FDF91CF911F910F91FF90EF90DF90E1
:1002D00008958091A50884FFE4CFEECFCF92DF92FE
:1002E000EF92FF920F931F93CF93DF934115510528
:1002F00051F481E0DF91CF911F910F91FF90EF902A
:10030000DF90CF900895EA017B01880F8160809390
:10031000A70810E000E082E0D82E97E0C92E0C1765
:100320001D0738F780E80E94E400811104C093E0C3
:100330009093A408DFCF8091A808F701E00FF11F88
:1003400080830F5F1F4F0C171D0719F4C092A4087C
:10035000E6CFD092A408E3CF1F93CF93DF93DA01C7
:10036000C62FFB0130E020E09E2F9C1B981738F031
:100370002C9311963C93DF91CF911F910895D191C9
:1003800068E070E091E0132F111F1127111F220F59
:10039000331F41E05D2F592309F440E0411719F064
:1003A00045E024273058990F6150710961F7DCCF7F
:1003B000EF92FF921F93CF93DF9300D0CDB7DEB7BC
:1003C0007C01162F19821A82AE014F5F5F4FBC016C
:1003D0008EEF810F0E94AC01B701610F711DFB010F
:1003E000329790818981981307C06150710981E02B
:1003F000FB0120819A81291380E081700F900F907A
:10040000DF91CF911F91FF90EF9008958F929F926F
:10041000AF92BF92CF92DF92EF92FF920F931F9312
:10042000CF937C01C62F5A0110E000E06C018FEFE2
:10043000C81AD80A862E912CA401B601F701808132
:100440000E946E01811118C087E893E10197F1F7CE
:1004500000C000000F5F1F4FA016B10669F780E0D3
:10046000CF911F910F91FF90EF90DF90CF90BF90B1
:10047000AF909F908F900895F7018181C813E4CFCA
:10048000C33010F36C2FC6010E94D8018823E1F21B
:10049000E7CFCF92DF92EF920F931F93CF93DF932B
:1004A000CDB7DEB7CA58D109CDBFDEBFF80108E02D
:1004B0000E0D093808F050C01E2D6C0183E08983B1
:1004C00087E08E0D8A836B834C832D833E83EE20E1
:1004D00049F0309739F04E2D50E0BF01CE0107961C
:1004E0000E948403C757DF4F18821982C958D04031
:1004F000AE0147575F4FBE016E5F7F4F85E0810FB2
:100500000E94AC01402F50E0EFEFFFEFEC0FFD1F1A
:10051000E40FF51FC757DF4F8881C958D04080834B
:10052000FE01E40FF51FC657DF4F8881CA58D0403F
:100530008083BE016F5F7F4FF60180810E94320190
:10054000C657DF4FCDBFDEBFDF91CF911F910F9117
:10055000EF90DF90CF90089580E0F2CF0F931F933C
:10056000CF93DF93EC0180E00E9425018BE49DE1B5
:100570000197F1F700C000008E010F5F1F4F44E0AC
:1005800050E0B80188810E946E01811102C080E0B4
:100590000DC089818430D9F764E0C8010E94D80178
:1005A0008823A9F381E09A81913189F7DF91CF9176
:1005B0001F910F910895EF920F931F93CF93DF93A5
:1005C000EC010E94AE02811102C080E018C0E12C53
:1005D00010E000E030E020E040E060E3CE010E9467
:1005E0004902882391F34AE050E067E0CE010E947F
:1005F0000602882351F381E09C81903531F7DF9129
:10060000CF911F910F91EF900895CF92DF92EF92CB
:100610000F931F93CF93DF936115710549F480E029
:10062000DF91CF911F910F91EF90DF90CF900895C0
:100630006B01EC010E94AE02882389F3E12C10E0EB
:1006400000E020E130E040E862E0CE010E94490293
:10065000882329F34AE050E063E2CE010E940602BB
:100660008823E9F2488D3A8D2B8D91E0598D5111F7
:1006700090E0F601908391E0411190E0F6019183C2
:1006800032832383CDCFCF93DF9300D000D0CDB77B
:10069000DEB7BE016F5F7F4F0E940503882351F0D4
:1006A0008981882369F08A81882351F08B81809524
:1006B000817081702496CDBFDEBFDF91CF91089508
:1006C00080E0F7CFA1E21A2EAA1BBB1BFD010DC0D3
:1006D000AA1FBB1FEE1FFF1FA217B307E407F507F2
:1006E00020F0A21BB30BE40BF50B661F771F881FCE
:1006F000991F1A9469F760957095809590959B0164
:10070000AC01BD01CF010895FB01DC0102C00190E5
:100710000D9241505040D8F70895DC0128ED209308
:0A07200034006C930895F894FFCFA5
:00000001FF
