:100000000C9448000C9452000C9452000C94520032
:100010000C9452000C9452000C9452000C94520018
:100020000C9452000C9452000C9452000C94520008
:100030000C9452000C9452000C9452000C945200F8
:100040000C9452000C9452000C9452000C945200E8
:100050000C9452000C9452000C9452000C945200D8
:100060000C9452000C9452000C9452000C945200C8
:100070000C9452000C9452000C9452000C945200B8
:100080000C9452000C9452000C9452000C945200A8
:1000900011241FBECFEFCDBFDFE3DEBF0E94ED0016
:1000A0000C94C5070C940000F894E0E8F8E009947B
:1000B000C82F48E750E068E770E08C2F0E94D60315
:1000C00040E951E060E971E081E00E94D603F1CFA0
:1000D0002F923F924F925F926F927F928F929F9258
:1000E000AF92BF92CF92DF92EF92FF920F931F9346
:1000F000CF93DF93CDB7DEB7C058D109CDBFDEBFF8
:100100008B010E9421032B013C01F801C080D180AA
:100110008E010F5F1F4F80E091E17C01E01AF10A30
:100120001E01F1E82F0E311C4701800E911EC114F3
:10013000D10411F481E011C0560181E8C816D10440
:1001400018F080E8A82EB12C9501A801C301B201D6
:100150000E944D05811118C080E0C058DF4FCDBF0F
:10016000DEBFDF91CF911F910F91FF90EF90DF9055
:10017000CF90BF90AF909F908F907F906F905F9047
:100180004F903F902F900895F801EA0DFB1DCF018D
:10019000801B910B80389105E9F4B801C4010E94DD
:1001A00072038823C9F2F801C701905CDC01AE0F2D
:1001B000BF1F3C9121913213CFCFE215F305B1F768
:1001C0004A0C5B1C611C711CCA18DB08E0E8EE0ECF
:1001D000F11CAACF8FEF8193DACFCF93DF93CDB706
:1001E000DEB7C454D140CDBFDEBF0E94A8030E9439
:1001F000D0030E94C30460EA76E881E090E00E94A8
:100200000F040E940E0540E550E060E570E081E0DB
:100210000E94D6030E944505811103C083E00E941D
:100220005800CE01835C9E4F0E94DA02C05CDE4F14
:100230008881C054D14081FF3EC0C15CDE4F8881BF
:10024000CF53D140833008F4AAC0BE0161537F4F21
:10025000C25CDE4F8881CE53D1400E9426038111BB
:1002600002C087E0DCCF6FEC70E06C0F7D1F6A5F2F
:100270007F4FC25CDE4F8881CE53D1400E94680020
:10028000811102C086E0CBCF8FEFC35CDE4F888345
:10029000CD53D140C05CDE4F1882C054D140C15C08
:1002A000DE4F1882CF53D140CE01835C9E4F0E9417
:1002B000FE020E945400C05CDE4F8881C054D140D1
:1002C00080FF3FC1C35CDE4F8881CD53D1408F3F5B
:1002D00009F437C15E0191E8A90EB11CB5010E9475
:1002E0002603811118C08FEFC35CDE4F8883CD5386
:1002F000D140C05CDE4F8881C054D1408E7FC05C4D
:10030000DE4F8883C054D140CE01835C9E4F0E9453
:10031000FE020E945400C35CDE4F1881CD53D140D1
:1003200080E60E949906882309F45BC0812F0E9411
:1003300021031B012C01F501E680F780612C21E1EE
:10034000722E912C8E010F5F1F4FCE0181539F4F54
:10035000CD5BDE4F88839983C354D14088248A942F
:10036000E114F10419F59E01235E3E4F492DBE01B3
:1003700061537F4F80E60E94DB06882391F195014F
:10038000245F3F4FAE01435E5E4F68E080E60E940F
:100390001E078111BBC080E60E94870622C08F5FC6
:1003A000C15CDE4F8883CF53D1407ECF670191E897
:1003B000E916F10418F090E8C92ED12C9601A80195
:1003C000C201B1010E944D05882359F0E0E4EE1608
:1003D000F10408F43EC0B80180E60E94BC06811119
:1003E00043C0BE016F5F7F4FC25CDE4F8881CE533A
:1003F000D1400E942603882309F433CFBE01695FF0
:100400007F4FC25CDE4F8881CE53D1400E9468008E
:10041000882309F437CF8FEFC35CDE4F8883CD5339
:10042000D140C05CDE4F8881C054D1408E7FC05C1B
:10043000DE4F8883C054D140C15CDE4F1882CF5359
:10044000D140CE01835C9E4F0E94FE020E94540068
:1004500060C09C2CDE01A153BF4FF80181918D93A8
:100460008E2F801B8915D0F3F0E8EF16F10490F180
:10047000BE016F5B7F4F80E60E94BC06882309F4B3
:10048000B0CFF801EC0DFD1DCF01801B910B803822
:100490009105D1F5B801C3010E947203882309F4C4
:1004A000A0CFF801C301801B910B905CDC01AE0F63
:1004B000BF1F3C912191321394CFEA15FB05B1F790
:1004C0002C0C3D1C411C511CE0E86E0E711CEC18FC
:1004D000FD0846CF81E4E816F10498F280EC982EEE
:1004E0009C0CDE01AF5BBF4FFE01E153FF4F8E2F2F
:1004F000CD5BDE4F9881C354D140891B891508F02C
:10050000C0CF8D918193F3CF8192BECF80E60E94C0
:100510008706C05CDE4F8881C054D1408E7F8260E8
:10052000C05CDE4F8883C054D140C15CDE4F18826E
:10053000CF53D140CE01835C9E4F0E94FE020E94A9
:1005400054000E945400FFCFFC019C012C5F3F4FE0
:100550008FEF9FEF41918427082E8295807F802521
:10056000092E982F82958F700826869598278927BF
:10057000880F880F880F8025E217F30759F7089531
:100580000F931F93CF93DF93EC010C811D810E9489
:10059000A4020817190741F4888182508D3F20F08A
:1005A00081E09981923008F080E0DF91CF911F9136
:1005B0000F910895CF93DF93EC0146E050E060E0A7
:1005C00070E00E947B07CE010E94C002811113C01F
:1005D0008FEF888319821A821B82CE010E94A402A7
:1005E0008C839D8346E050E060E070E0CE01DF91B7
:1005F000CF910C947F07DF91CF910895CF93DF9334
:10060000CDB7DEB72697CDBFDEBFFC0196E0DE0199
:10061000119601900D929A95E1F7CE0101960E94F4
:10062000A4028D839E8346E050E060E070E0CE013E
:1006300001960E947F072696CDBFDEBFDF91CF9146
:1006400008956EE470E080E090E00895CF93DF932A
:100650006115710509F434C0823008F031C0EB0136
:100660002EE430E0AB0160E070E0CB010E944D056C
:10067000882331F188819981AA81BB818434914496
:10068000A345B244E9F48C818130D1F49E01245B0E
:100690003F4F8FEF9FEF49918427082E8295807FEF
:1006A0008025092E982F82958F7008268695982789
:1006B0008927880F880F880F8025C217D30759F71D
:1006C00080E0DF91CF9108959091021090FDFCCFD2
:1006D000682F80E090E10E94AE078091021080FDBB
:1006E000FCCF08950F931F93CF93DF938C01EB0101
:1006F00084E00E9464039E0120583F4FB8016C1BA8
:100700007D0B89819881892798278927AB014C0F18
:100710005D1F40930810509309108093061090932A
:10072000071022962C173D0761F7009308101093CD
:10073000091083E00E9464038091021082FB8827E5
:1007400080F991E08927DF91CF911F910F91089552
:10075000F8948091010180FDFCCF60E080E091E0A1
:100760000E94AE078091010180FDFCCF60E080E631
:1007700090E00E94AE0760E081E690E00E94AE0744
:100780008091630084FFFCCF8091E3058C7C8062C4
:100790008093E3058091E2058C7F8093E2050895C4
:1007A000E0E6F4E081E081838683089590E0E1E073
:1007B000981301C00895E09365049B01211531054C
:1007C00041F4E09366049A012115310559F49F5FC5
:1007D000EFCFA7E8B3E11197F1F700C00000215077
:1007E0003109ECCFA7E8B3E11197F1F700C00000A1
:1007F00021503109E9CF40E251EA67E070E0909181
:10080000A508292F2C7039F4982339F44150510947
:1008100061097109A1F780E0089581E008959B01C5
:10082000AC01220F331F441F551F60E07DE281E3BE
:1008300091E00E94590781E090E0A0E0B0E026300E
:1008400031054105510578F0DA01C9010597A10983
:10085000B1098F3F9105A105B10529F020F08FEF77
:1008600090E0A0E0B0E08093A60883E08093A30826
:1008700081E08093A5080895880F8093A70880E4FD
:100880000E94FB0393E09093A408811101C0089596
:100890000895DF92EF92FF920F931F93CF93DF9310
:1008A000D62E072F7A01880F8093A70880E40E9434
:1008B000FB03182F811104C083E08093A40817C0A4
:1008C0008091A50884FD0FC0CD2DD02FEC0EFD1E0C
:1008D000CE15DF0589F389918093A80880E40E94F2
:1008E000FB0381110DC083E08093A40810E0812FE9
:1008F000DF91CF911F910F91FF90EF90DF900895BE
:100900008091A50884FFE4CFEECFCF92DF92EF92E3
:10091000FF920F931F93CF93DF934115510551F42D
:1009200081E0DF91CF911F910F91FF90EF90DF90C9
:10093000CF900895EA017B01880F81608093A7081A
:1009400010E000E082E0D82E97E0C92E0C171D07BA
:1009500038F780E80E94FB03811104C093E0909374
:10096000A408DFCF8091A808F701E00FF11F808372
:100970000F5F1F4F0C171D0719F4C092A408E6CF94
:10098000D092A408E3CFE0E0F4E080E8818390E136
:10099000918390E4918390E292838583E0E6F4E092
:1009A00084E081838583E0ECF8E091E290838183A9
:1009B00008958093C4088091C30887FFFCCF80917D
:1009C000C4080895CF92DF92EF92FF920F931F9386
:1009D000CF93DF938C017B016A01D0E0C0E0CC159E
:1009E000DD0549F4DF91CF911F910F91FF90EF90BA
:1009F000DF90CF9008958FEF0115110521F0F801D8
:100A0000EC0FFD1F80810E94D904E114F10421F054
:100A1000F701EC0FFD1F80832196E1CF84E08093E6
:100A200065040895FF920F931F93CF93DF9300D037
:100A300000D0CDB7DEB78FE98C8319821A821B8272
:100A400000E614E084E0F82EF801F68241E050E080
:100A500070E060E0CE0104960E94E20443E050E0C2
:100A6000BE016F5F7F4F90E080E00E94E204F801DA
:100A7000F5827A8169818B812496CDBFDEBFDF91BB
:100A8000CF911F910F91FF9008950E941205615020
:100A900081E06E3F08F080E00895AF92BF92CF9260
:100AA000DF92FF920F931F93CF93DF9300D000D07C
:100AB000CDB7DEB76A01590193E099838A837B83BE
:100AC0006C8300E614E084E0F82EF801F68244E03E
:100AD00050E070E060E0CE0101960E94E204A501C2
:100AE000B60190E080E00E94E204F801F58281E026
:100AF0002496CDBFDEBFDF91CF911F910F91FF9064
:100B0000DF90CF90BF90AF9008951F93CF93DF9366
:100B1000DA01C62FFB0130E020E09E2F9C1B9817C6
:100B200038F02C9311963C93DF91CF911F9108954B
:100B3000D19168E070E091E0132F111F1127111F70
:100B4000220F331F41E05D2F592309F440E0411784
:100B500019F045E024273058990F6150710961F769
:100B6000DCCFDF92EF92FF920F931F93CF93DF932F
:100B700000D0CDB7DEB78B01D42EE42EF12CA70127
:100B80000E9485048823E1F0F80180818D1122C044
:100B9000AE014F5F5F4FB80182500E9485050E0D78
:100BA0001F1DF801329790818981981307C0015069
:100BB000110981E0F80120819A81291380E0817078
:100BC0000F900F90DF91CF911F910F91FF90EF90B9
:100BD000DF90089580E0F4CFCF93DF9300D000D072
:100BE000CDB7DEB7615090F444E0BE016F5F7F4F38
:100BF0000E94B105882321F081E09A81911180E063
:100C00002496CDBFDEBFDF91CF910895E7E8F3E1F1
:100C10003197F1F700C00000E5CFDF92EF92FF922D
:100C20000F931F93CF93DF93CDB7DEB7CA54D1098B
:100C3000CDBFDEBFD82E8E2D98E0F92EFE0C93E0AE
:100C4000998397E09E0D9A836B834C832D831E823C
:100C5000202FDE011796F8019E2F921B981770F136
:100C6000AE01475B5F4FBE016E5F7F4F8B5F0E949F
:100C700085054F2D50E0EFEFFFEFEC0FFD1FE40F68
:100C8000F51F2A968FAD2A978083FE01E40FF51F8A
:100C90002B968FAD2B978083BE016F5F7F4F8D2D7D
:100CA0000E944904C65BDF4FCDBFDEBFDF91CF910D
:100CB0001F910F91FF90EF90DF90089591919D9378
:100CC000CBCF1F93CF93DF9300D000D0CDB7DEB74B
:100CD000182F80E00E943C048BE49DE10197F1F71E
:100CE00000C0000044E0BE016F5F7F4F812F0E9473
:100CF000B105882329F081E09A81913109F080E0E3
:100D00002496CDBFDEBFDF91CF911F910895CF9381
:100D1000DF931F92CDB7DEB791E0998341E050E0B9
:100D2000BE016F5F7F4F0E9449040F90DF91CF910A
:100D30000895EF920F931F93CF93C82F0E946106DF
:100D40008823A1F0E12C10E000E030E020E040E05A
:100D500067E48C2F0E940D06882341F069E08C2FF8
:100D6000CF911F910F91EF900C94EC0580E0CF9103
:100D70001F910F91EF900895EF920F931F93CF93D0
:100D8000C82F80E4E82E8B0120E430E041E067E4E6
:100D90008C2F0E940D06882341F069E08C2FCF91A3
:100DA0001F910F91EF900C94EC0580E0CF911F9173
:100DB0000F91EF900895CF92DF92EF92FF920F93F1
:100DC0001F93CF93DF93CDB7DEB7A397CDBFDEBF21
:100DD000403490F56901E42E8B01F82E242F30E089
:100DE00042E067E40E940D06882331F187EC9FEA18
:100DF0000197F1F700C0000043E2BE016F5F7F4F33
:100E00008F2D0E94B1058823B9F0DE011296F601FC
:100E10009601205E3F4F9D919193E217F307D9F71A
:100E2000A396CDBFDEBFDF91CF911F910F91FF90B1
:100E3000EF90DF90CF90089580E0F2CFCF92DF92D5
:100E4000EF920F931F93CF93DF93C82FD62F690193
:100E500090E2E92E8A0130E020E043E066E10E9462
:100E60000D068823E9F067E08C2F0E94EC058823AB
:100E7000B9F02D2F30E080E4E82E860140E065E4F3
:100E80008C2F0E940D06882359F06CE38C2FDF9184
:100E9000CF911F910F91EF90DF90CF900C94EC05C4
:100EA00080E0DF91CF911F910F91EF90DF90CF9075
:100EB0000895A1E21A2EAA1BBB1BFD010DC0AA1F9B
:100EC000BB1FEE1FFF1FA217B307E407F50720F0B3
:100ED000A21BB30BE40BF50B661F771F881F991F2E
:100EE0001A9469F760957095809590959B01AC0177
:100EF000BD01CF01089560507C4E0C94BC07DC010D
:100F0000A40FB51F4150504048F0CB01840F951FEE
:100F10002E910E94900741505040D0F70895262FFF
:100F20000E94B8070080021619F00E949B070197E3
:100F300001970895262FAF93BF93E0E0F0E132814F
:100F400031FDFDCFDC01A050BC4E2C933DE934BFF8
:100F500023E020830196BF91AF910895DC0128ED35
:100F6000209334006C93089503D0808199270895CD
:100F7000FC01E050FC4E0895FB01DC0102C0019031
:0E0F80000D9241505040D8F70895F894FFCFDD
:101000000C9400000C9482080C9484080C948608BC
:101010000C9488080C948A080C948C080C948E0804
:101020000C9490080C9492080C9494080C949608D4
:101030000C9498080C949A080C949C080C949E08A4
:101040000C94A0080C94A2080C94A4080C94A60874
:101050000C94A8080C94AA080C94AC080C94AE0844
:101060000C94B0080C94B2080C94B4080C94B60814
:101070000C94B8080C94BA080C94BC080C94BE08E4
:101080000C94C0080C94C2080C94C4080C94C608B4
:00000001FF
