:1000000047C000004DC000004BC0000049C00000C8
:1000100047C0000045C0000043C0000041C00000D0
:100020003FC000003DC000003BC0000039C00000E0
:1000300037C0000035C0000033C0000031C00000F0
:100040002FC000002DC000002BC0000029C0000000
:1000500027C0000025C0000023C0000021C0000010
:100060001FC000001DC000001BC0000019C0000020
:1000700017C0000015C0000013C0000011C0000030
:100080000FC000000DC000000BC0000009C0000040
:1000900011241FBECFEFCDBFDFE3DEBF71D022C77B
:1000A000AFCFF894E0E8F8E009950895C82F48E745
:1000B00050E068E770E08C2F7DD340E951E060E9C3
:1000C00071E081E077D3F3CFA0E8B0E0E9E6F0E0BB
:1000D00092C68B0174D22B013C01F801C080D18003
:1000E0008E010F5F1F4F80E091E17C01E01AF10A61
:1000F0001E01F1E82F0E311C4701800E911EC11424
:10010000D10411F481E010C0560181E8C816D10471
:1001100018F080E8A82EB12C9501A801C301B20106
:1001200097D4811105C080E0C058DF4FE2E17CC662
:10013000F801EA0DFB1DCF01801B910B8038910562
:10014000E1F4B801C401D7D2882369F3F801C701EB
:10015000905CDC01AE0FBF1F3C9121913213E3CFC5
:10016000E215F305B1F74A0C5B1C611C711CCA183F
:10017000DB08E0E8EE0EF11CBFCF8FEF8193DBCF01
:10018000ACE4B1E0E5ECF0E036C6E9D20DD3ECD357
:1001900060EA76E881E090E046D328D440E550E07C
:1001A00060E570E081E006D34CD4811102C083E0A9
:1001B0007DDFCE018B5B9E4FC8D1C85BDE4F88814F
:1001C000C854D14081FF3AC0C95BDE4F8881C75413
:1001D000D140833008F49EC0BE016D527F4FCA5B90
:1001E000DE4F8881C654D140EFD1811102C087E033
:1001F000DFCF63ED70E06C0F7D1F685F7F4FCA5BE0
:10020000DE4F8881C654D1405FDF811102C086E095
:10021000CFCF8FEFCB5BDE4F8883C554D140C85B17
:10022000DE4F1882C854D140C95BDE4F1882C754D4
:10023000D140CE018B5B9E4FA6D133DFC85BDE4F32
:100240008881C854D14080FF2CC1CB5BDE4F8881B0
:10025000C554D1408F3F09F424C15E0191E8A90E35
:10026000B11CB501B1D1811116C08FEFCB5BDE4F50
:100270008883C554D140C85BDE4F8881C854D140C3
:100280008E7FC85BDE4F8883C854D140CE018B5B24
:100290009E4F79D106DFCB5BDE4F1881C554D1402C
:1002A00080E6F1D4882309F455C0812F88D11B0141
:1002B0002C01F501E084F184612C21E1722E912C56
:1002C0008E010F5F1F4FCE018D529F4FC55BDE4FDA
:1002D00088839983CB54D14088248A94E114F10413
:1002E00001F59E012B5D3E4F492DBE016D527F4FA2
:1002F00080E6FED4882371F19501205F3F4FAE0167
:100300004B5D5E4F68E080E623D58111B2C080E688
:10031000AAD420C08F5FC95BDE4F8883C754D14009
:1003200088CF670191E8E916F10418F090E8C92E2A
:10033000D12C9601A801C201B1018AD3882351F0C2
:10034000E0E4EE16F10408F439C0B80180E6B8D450
:1003500081113FC0BE016F5F7F4FCA5BDE4F888156
:10036000C654D14031D1882309F441CFBE01675F23
:100370007F4FCA5BDE4F8881C654D140A5DE8823FB
:1003800009F445CF8FEFCB5BDE4F8883C554D14056
:10039000C85BDE4F8881C854D1408E7FC85BDE4F7A
:1003A0008883C854D140C95BDE4F1882C754D140FE
:1003B000CE018B5B9E4FE7D074DE5DC09C2CDE01CE
:1003C000AD52BF4FF80181918D938E2F801B8915FF
:1003D000D0F3F0E8EF16F10480F1BE016F5B7F4FC0
:1003E00080E66ED4882309F4B5CFF801EC0DFD1D2D
:1003F000CF01801B910B80389105C9F5B801C3016D
:100400007AD1882309F4A6CFF801C301801B910B90
:10041000905CDC01AE0FBF1F3C91219132139ACF4B
:10042000EA15FB05B1F72C0C3D1C411C511CE0E802
:100430006E0E711CEC18FD0851CF81E4E816F10432
:10044000A0F280EC982E9C0CDE01AF5BBF4FFE014A
:10045000ED52FF4F8E2FC55BDE4F9881CB54D140BC
:10046000891B891508F0C1CF8D918193F3CF8192BB
:10047000BFCF80E6F8D3C85BDE4F8881C854D14037
:100480008E7F8260C85BDE4F8883C854D140C95BD1
:10049000DE4F1882C754D140CE018B5B9E4F73D084
:1004A00000DEFFDDFFCFCF93DF93FC01DC0114966C
:1004B00090E080E061E870E1219130E0EC0144E0FF
:1004C000D695C7954A95E1F7A901482759274F7056
:1004D0005527469FC001479F900D569F900D1124B0
:1004E0008C279D27AC01C4E056954795CA95E1F746
:1004F000D4E036952795DA95E1F7282739272F702C
:100500003327269FC001279F900D369F900D112401
:1005100084279527AE17BF0779F6DF91CF9108950D
:10052000CF93DF93EC01BFDF2C813D812817390782
:1005300041F4888182508D3F20F081E09981923092
:1005400008F080E0DF91CF910895CF93DF93EC0125
:1005500046E050E060E070E07FD4CE01E1DF811141
:100560000FC08FEF888319821A821B82CE019BDF16
:100570008C839D8346E050E060E070E0CE016FD454
:10058000DF91CF910895A6E0B0E0E8ECF2E043C43B
:10059000FC0196E0DE01119601900D929A95E1F72B
:1005A000CE01019680DF8D839E8346E050E060E0BF
:1005B00070E0CE01019653D42696E2E045C462E590
:1005C00070E080E090E00895A2E5B0E0E9EEF2E0AE
:1005D0001EC46115710511F480E07CC08230E0F723
:1005E0008B0122E530E0AB0160E070E0CB0130D25E
:1005F000882391F3F80180819181A281B3818734AE
:100600009244A644B74541F7F8018481813021F72F
:1006100082E5DE01119601900D928A95E1F78FE354
:100620008E83FE013196BE016F5A7F4F30E020E08D
:1006300041E850E1819190E0D901B295A295AF7067
:10064000AB27BF70AB27282739272F703327249F6C
:100650007001259FF00C349FF00C1124AE25BF25AE
:100660009D01329522952F7023273F702327929565
:1006700082958F7089279F7089278A279B278F7083
:100680009927849FD001859FB00D949FB00D1124B0
:100690002A273B276E177F0769F6F801E05BFF4FBB
:1006A000808191818217930709F096CFF8018581A7
:1006B000803408F091CF4085518562857385415023
:1006C00051096109710981E041155F4A61057105B0
:1006D00008F082CFCE5ADF4FE6E0B2C3909102100D
:1006E00090FDFCCF682F80E090E1E5D3809102106F
:1006F00080FDFCCF08950F931F93CF93DF938C0160
:10070000EB0184E0EBDF9E0120583F4FB8016C1BEA
:100710007D0B89819881892798278927AB014C0F08
:100720005D1F40930810509309108093061090931A
:10073000071022962C173D0761F7009308101093BD
:10074000091083E0CBDF8091021082FB882780F9BB
:1007500091E08927DF91CF911F910F910895F8942F
:100760008091010180FDFCCF60E080E091E0A3D3A7
:100770008091010180FDFCCF60E080E690E09BD39A
:1007800060E081E690E097D38091630084FFFCCF26
:100790008091E3058C7C80628093E3058091E20583
:1007A0008C7F8093E2050895E0E6F4E081E08183A8
:1007B0008683089590E0E1E0981301C00895E093E6
:1007C00065049B012115310541F4E09366049A010B
:1007D0002115310559F49F5FEFCFA7E8B3E11197D9
:1007E000F1F700C0000021503109ECCFA7E8B3E1D8
:1007F0001197F1F700C0000021503109E9CF40E224
:1008000051EA67E070E09091A508292F2C7039F427
:10081000982339F44150510961097109A1F780E029
:10082000089581E008959B01AC01220F331F441FFE
:10083000551F60E07DE281E391E0BBD281E090E072
:10084000A0E0B0E0263031054105510578F0DA012D
:10085000C9010597A109B1098F3F9105A105B1050E
:1008600029F020F08FEF90E0A0E0B0E08093A608A0
:1008700083E08093A30881E08093A5080895880F02
:100880008093A70880E4BBDF93E09093A4088111D4
:1008900001C008950895B0E0A0E0E0E5F4E0B6C23C
:1008A000D62E072F7A01880F8093A70880E4A7DF50
:1008B000182F811104C083E08093A40816C0809192
:1008C000A50884FD0EC0CD2DD02FEC0EFD1ECE153B
:1008D000DF0589F389918093A80880E490DF811176
:1008E00009C083E08093A40810E0812FCDB7DEB764
:1008F000E7E0A5C28091A50884FFE9CFF2CFB0E080
:10090000A0E0E4E8F4E081C24115510529F481E05A
:10091000CDB7DEB7E8E092C2EA017B01880F8160C3
:100920008093A70810E000E082E0D82E97E0C92E5F
:100930000C171D0760F780E862DF811104C093E0A7
:100940009093A408E5CF8091A808F701E00FF11F6C
:1009500080830F5F1F4F0C171D0719F4C092A40866
:10096000E7CFD092A408E4CFE0E0F4E080E8818310
:1009700090E1918390E4918390E292838583E0E615
:10098000F4E084E081838583E0ECF8E091E29083F9
:10099000818308958093C4088091C30887FFFCCFAA
:1009A0008091C4080895B0E0A0E0E8EDF4E02DC225
:1009B0008C017B016A01D0E0C0E0CC15DD0521F49B
:1009C000CDB7DEB7E8E03AC28FEF0115110521F08F
:1009D000F801EC0FFD1F8081DDDFE114F10421F04F
:1009E000F701EC0FFD1F80832196E7CF84E0809311
:1009F00065040895A4E0B0E0EFEFF4E009C28FE9E8
:100A00008C8319821A821B8200E614E084E0F82E9F
:100A1000F801F68241E050E070E060E0CE0104961B
:100A2000C2DF43E050E0BE016F5F7F4F90E080E0A7
:100A3000BADFF801F5827A8169818B812496E5E03D
:100A400000C2D8DF615081E06E3F08F080E0089579
:100A5000AF92BF92CF92DF92FF920F931F93CF93EB
:100A6000DF9300D000D0CDB7DEB76A01590193E023
:100A700099838A837B836C8300E614E084E0F82EFC
:100A8000F801F68244E050E070E060E0CE010196AB
:100A90008ADFA501B60190E080E085DFF801F582EC
:100AA00081E02496CDBFDEBFDF91CF911F910F91E2
:100AB000FF90DF90CF90BF90AF9008951F93CF939A
:100AC000DF93DA01C62FFB0130E020E09E2F9C1B54
:100AD000981738F02C9311963C93DF91CF911F918A
:100AE0000895D19168E070E091E0132F111F112754
:100AF000111F220F331F41E05D2F592309F440E0FD
:100B0000411719F045E024273058990F61507109B9
:100B100061F7DCCFA2E0B0E0EFE8F5E077C18B0150
:100B2000D42EE42EF12CA701EADE8823D9F0F801B7
:100B300080818D111AC0AE014F5F5F4FB8018250A6
:100B4000BDDF0E0D1F1DF80132979081898198132A
:100B500007C00150110981E0F80120819A81291311
:100B600080E081702296E7E06AC180E0FBCFA4E0DC
:100B7000B0E0ECEBF5E04FC1615070F444E0BE0131
:100B80006F5F7F4FC7DF882321F081E09A81911149
:100B900080E02496E2E058C1E7E8F3E13197F1F70D
:100BA00000C00000E9CFAAE4B0E0E8EDF5E02EC116
:100BB000D82E8E2D98E0F92EFE0C93E0998397E0C5
:100BC0009E0D9A836B834C832D831E82202FDE0122
:100BD0001796F8019E2F921B981720F1AE01475BE4
:100BE0005F4FBE016E5F7F4F8B5F68DF4F2D50E020
:100BF000EFEFFFEFEC0FFD1FE40FF51F2A968FAD0F
:100C00002A978083FE01E40FF51F2B968FAD2B975B
:100C10008083BE016F5F7F4F8D2D3DDEC65BDF4F52
:100C2000E7E00DC191919D93D5CFA4E0B0E0EAE15A
:100C3000F6E0F0C0182F80E022DE8BE49DE1019702
:100C4000F1F700C0000044E0BE016F5F7F4F812FCD
:100C500061DF882329F081E09A81913109F080E0F9
:100C60002496E3E0F0C0A1E0B0E0E8E3F6E0D3C012
:100C700091E0998341E050E0BE016F5F7F4F0BDE52
:100C80002196E2E0E1C0EF920F931F93CF93C82F1C
:100C9000CCDF811106C080E0CF911F910F91EF90C2
:100CA0000895E12C10E000E030E020E040E067E44F
:100CB0008C2F79DF882379F369E08C2F58DFECCF14
:100CC000EF920F931F93CF93C82F80E4E82E8B01F0
:100CD00020E430E041E067E48C2F65DF882319F0E1
:100CE00069E08C2F44DFCF911F910F91EF90089511
:100CF000A3E2B0E0EDE7F6E088C0403438F56901E2
:100D0000E42E8B01F82E242F30E042E067E44BDF25
:100D10008823E1F087EC9FEA0197F1F700C000001B
:100D200043E2BE016F5F7F4F8F2DF4DE882371F0A9
:100D3000DE011296F6019601205E3F4F9D91919340
:100D4000E217F307D9F7A396E8E078C080E0FBCF7D
:100D5000CF92DF92EF920F931F93CF93DF93C82F21
:100D6000D62F690190E2E92E8A0130E020E043E0CD
:100D700066E119DF811109C080E0DF91CF911F91F9
:100D80000F91EF90DF90CF90089567E08C2FEFDE0A
:100D9000882391F32D2F30E080E4E82E860140E097
:100DA00065E48C2F00DF882339F36CE38C2FDFDEC2
:100DB000E4CFA1E21A2EAA1BBB1BFD010DC0AA1F86
:100DC000BB1FEE1FFF1FA217B307E407F50720F0B4
:100DD000A21BB30BE40BF50B661F771F881F991F2F
:100DE0001A9469F760957095809590959B01AC0178
:100DF000BD01CF0108952F923F924F925F926F9263
:100E00007F928F929F92AF92BF92CF92DF92EF929A
:100E1000FF920F931F93CF93DF93CDB7DEB7CA1B1B
:100E2000DB0BCDBFDEBF09942A88398848885F84F0
:100E30006E847D848C849B84AA84B984C884DF807A
:100E4000EE80FD800C811B81AA81B981CE0FD11D5E
:100E5000CDBFDEBFED01089560507C4E3AC0DC018D
:100E6000A40FB51F4150504040F0CB01840F951F97
:100E70002E9105D041505040D8F70895262F25D007
:100E80000080021611F004D0019701970895262FD3
:100E9000AF93BF93E0E0F0E1328131FDFDCFDC01A3
:100EA000A050BC4E2C933DE934BF23E02083019633
:100EB000BF91AF910895DC0128ED209334006C932D
:100EC000089503D0808199270895FC01E050FC4EDD
:100ED0000895FB01DC0102C001900D924150504089
:080EE000D8F70895F894FFCF44
:101000000C9400000C9482080C9484080C948608BC
:101010000C9488080C948A080C948C080C948E0804
:101020000C9490080C9492080C9494080C949608D4
:101030000C9498080C949A080C949C080C949E08A4
:101040000C94A0080C94A2080C94A4080C94A60874
:101050000C94A8080C94AA080C94AC080C94AE0844
:101060000C94B0080C94B2080C94B4080C94B60814
:101070000C94B8080C94BA080C94BC080C94BE08E4
:101080000C94C0080C94C2080C94C4080C94C608B4
:00000001FF
